{
  "contractName": "idGenerator",
  "abi": [
    {
      "inputs": [],
      "name": "id",
      "outputs": [
        {
          "internalType": "uint256",
          "name": "",
          "type": "uint256"
        }
      ],
      "stateMutability": "view",
      "type": "function",
      "constant": true
    },
    {
      "inputs": [
        {
          "internalType": "uint256",
          "name": "x",
          "type": "uint256"
        }
      ],
      "name": "setId",
      "outputs": [],
      "stateMutability": "nonpayable",
      "type": "function"
    }
  ],
  "bytecode": "0x608060405234801561001057600080fd5b50610217806100206000396000f3fe608060405234801561001057600080fd5b50600436106100365760003560e01c8063af640d0f1461003b578063d0e0ba9514610059575b600080fd5b610043610075565b60405161005091906100c3565b60405180910390f35b610073600480360381019061006e919061010f565b61007b565b005b60005481565b608160e76103e88361008d919061016b565b610097919061016b565b6100a191906101ad565b60008190555050565b6000819050919050565b6100bd816100aa565b82525050565b60006020820190506100d860008301846100b4565b92915050565b600080fd5b6100ec816100aa565b81146100f757600080fd5b50565b600081359050610109816100e3565b92915050565b600060208284031215610125576101246100de565b5b6000610133848285016100fa565b91505092915050565b7f4e487b7100000000000000000000000000000000000000000000000000000000600052601160045260246000fd5b6000610176826100aa565b9150610181836100aa565b925082820261018f816100aa565b915082820484148315176101a6576101a561013c565b5b5092915050565b60006101b8826100aa565b91506101c3836100aa565b92508282019050808211156101db576101da61013c565b5b9291505056fea264697066735822122076347ab66e90b785a336b33845ccb7e4dc01151df984245c6752afad289a158264736f6c63430008110033",
  "immutableReferences": {},
  "source": "// SPDX-License-Identifier: MIT\npragma solidity >=0.4.22 <0.9.0;\n\ncontract idGenerator {\n    uint public id;\n\n    function setId(uint x) public {\n        id = x * 1000 * 231 + 129;\n    }\n}\n",
  "sourcePath": "/Users/saishmirajkar/Desktop/test2 copy/contracts/idGenerator.sol",
  "compiler": {
    "name": "solc",
    "version": "0.8.17+commit.8df45f5f.Emscripten.clang"
  },
  "schemaVersion": "3.4.14",
  "updatedAt": "2023-07-18T17:11:09.502Z",
  "networkType": "ethereum",
  "devdoc": {
    "kind": "dev",
    "methods": {},
    "version": 1
  },
  "userdoc": {
    "kind": "user",
    "methods": {},
    "version": 1
  }
}